{
  "contractName": "NFT",
  "abi": [
    {
      "inputs": [],
      "stateMutability": "nonpayable",
      "type": "constructor"
    },
    {
      "anonymous": false,
      "inputs": [
        {
          "indexed": true,
          "internalType": "address",
          "name": "owner",
          "type": "address"
        },
        {
          "indexed": true,
          "internalType": "address",
          "name": "approved",
          "type": "address"
        },
        {
          "indexed": true,
          "internalType": "uint256",
          "name": "tokenId",
          "type": "uint256"
        }
      ],
      "name": "Approval",
      "type": "event"
    },
    {
      "anonymous": false,
      "inputs": [
        {
          "indexed": true,
          "internalType": "address",
          "name": "owner",
          "type": "address"
        },
        {
          "indexed": true,
          "internalType": "address",
          "name": "operator",
          "type": "address"
        },
        {
          "indexed": false,
          "internalType": "bool",
          "name": "approved",
          "type": "bool"
        }
      ],
      "name": "ApprovalForAll",
      "type": "event"
    },
    {
      "anonymous": false,
      "inputs": [
        {
          "indexed": true,
          "internalType": "address",
          "name": "from",
          "type": "address"
        },
        {
          "indexed": true,
          "internalType": "address",
          "name": "to",
          "type": "address"
        },
        {
          "indexed": true,
          "internalType": "uint256",
          "name": "tokenId",
          "type": "uint256"
        }
      ],
      "name": "Transfer",
      "type": "event"
    },
    {
      "inputs": [],
      "name": "admin",
      "outputs": [
        {
          "internalType": "address",
          "name": "",
          "type": "address"
        }
      ],
      "stateMutability": "view",
      "type": "function",
      "constant": true
    },
    {
      "inputs": [
        {
          "internalType": "address",
          "name": "to",
          "type": "address"
        },
        {
          "internalType": "uint256",
          "name": "tokenId",
          "type": "uint256"
        }
      ],
      "name": "approve",
      "outputs": [],
      "stateMutability": "nonpayable",
      "type": "function"
    },
    {
      "inputs": [
        {
          "internalType": "address",
          "name": "owner",
          "type": "address"
        }
      ],
      "name": "balanceOf",
      "outputs": [
        {
          "internalType": "uint256",
          "name": "",
          "type": "uint256"
        }
      ],
      "stateMutability": "view",
      "type": "function",
      "constant": true
    },
    {
      "inputs": [
        {
          "internalType": "uint256",
          "name": "tokenId",
          "type": "uint256"
        }
      ],
      "name": "getApproved",
      "outputs": [
        {
          "internalType": "address",
          "name": "",
          "type": "address"
        }
      ],
      "stateMutability": "view",
      "type": "function",
      "constant": true
    },
    {
      "inputs": [
        {
          "internalType": "address",
          "name": "owner",
          "type": "address"
        },
        {
          "internalType": "address",
          "name": "operator",
          "type": "address"
        }
      ],
      "name": "isApprovedForAll",
      "outputs": [
        {
          "internalType": "bool",
          "name": "",
          "type": "bool"
        }
      ],
      "stateMutability": "view",
      "type": "function",
      "constant": true
    },
    {
      "inputs": [],
      "name": "name",
      "outputs": [
        {
          "internalType": "string",
          "name": "",
          "type": "string"
        }
      ],
      "stateMutability": "view",
      "type": "function",
      "constant": true
    },
    {
      "inputs": [],
      "name": "nextTokenId",
      "outputs": [
        {
          "internalType": "uint256",
          "name": "",
          "type": "uint256"
        }
      ],
      "stateMutability": "view",
      "type": "function",
      "constant": true
    },
    {
      "inputs": [
        {
          "internalType": "uint256",
          "name": "tokenId",
          "type": "uint256"
        }
      ],
      "name": "ownerOf",
      "outputs": [
        {
          "internalType": "address",
          "name": "",
          "type": "address"
        }
      ],
      "stateMutability": "view",
      "type": "function",
      "constant": true
    },
    {
      "inputs": [
        {
          "internalType": "address",
          "name": "from",
          "type": "address"
        },
        {
          "internalType": "address",
          "name": "to",
          "type": "address"
        },
        {
          "internalType": "uint256",
          "name": "tokenId",
          "type": "uint256"
        }
      ],
      "name": "safeTransferFrom",
      "outputs": [],
      "stateMutability": "nonpayable",
      "type": "function"
    },
    {
      "inputs": [
        {
          "internalType": "address",
          "name": "from",
          "type": "address"
        },
        {
          "internalType": "address",
          "name": "to",
          "type": "address"
        },
        {
          "internalType": "uint256",
          "name": "tokenId",
          "type": "uint256"
        },
        {
          "internalType": "bytes",
          "name": "_data",
          "type": "bytes"
        }
      ],
      "name": "safeTransferFrom",
      "outputs": [],
      "stateMutability": "nonpayable",
      "type": "function"
    },
    {
      "inputs": [
        {
          "internalType": "address",
          "name": "operator",
          "type": "address"
        },
        {
          "internalType": "bool",
          "name": "approved",
          "type": "bool"
        }
      ],
      "name": "setApprovalForAll",
      "outputs": [],
      "stateMutability": "nonpayable",
      "type": "function"
    },
    {
      "inputs": [
        {
          "internalType": "bytes4",
          "name": "interfaceId",
          "type": "bytes4"
        }
      ],
      "name": "supportsInterface",
      "outputs": [
        {
          "internalType": "bool",
          "name": "",
          "type": "bool"
        }
      ],
      "stateMutability": "view",
      "type": "function",
      "constant": true
    },
    {
      "inputs": [],
      "name": "symbol",
      "outputs": [
        {
          "internalType": "string",
          "name": "",
          "type": "string"
        }
      ],
      "stateMutability": "view",
      "type": "function",
      "constant": true
    },
    {
      "inputs": [
        {
          "internalType": "uint256",
          "name": "tokenId",
          "type": "uint256"
        }
      ],
      "name": "tokenURI",
      "outputs": [
        {
          "internalType": "string",
          "name": "",
          "type": "string"
        }
      ],
      "stateMutability": "view",
      "type": "function",
      "constant": true
    },
    {
      "inputs": [
        {
          "internalType": "address",
          "name": "from",
          "type": "address"
        },
        {
          "internalType": "address",
          "name": "to",
          "type": "address"
        },
        {
          "internalType": "uint256",
          "name": "tokenId",
          "type": "uint256"
        }
      ],
      "name": "transferFrom",
      "outputs": [],
      "stateMutability": "nonpayable",
      "type": "function"
    },
    {
      "inputs": [
        {
          "internalType": "address",
          "name": "to",
          "type": "address"
        }
      ],
      "name": "mint",
      "outputs": [],
      "stateMutability": "nonpayable",
      "type": "function"
    }
  ],
  "bytecode": "0x60806040523480156200001157600080fd5b506040518060400160405280600681526020017f4d79204e465400000000000000000000000000000000000000000000000000008152506040518060400160405280600381526020017f4e46540000000000000000000000000000000000000000000000000000000000815250816000908051906020019062000096929190620000f9565b508060019080519060200190620000af929190620000f9565b50505033600760006101000a81548173ffffffffffffffffffffffffffffffffffffffff021916908373ffffffffffffffffffffffffffffffffffffffff1602179055506200020e565b8280546200010790620001a9565b90600052602060002090601f0160209004810192826200012b576000855562000177565b82601f106200014657805160ff191683800117855562000177565b8280016001018555821562000177579182015b828111156200017657825182559160200191906001019062000159565b5b5090506200018691906200018a565b5090565b5b80821115620001a55760008160009055506001016200018b565b5090565b60006002820490506001821680620001c257607f821691505b60208210811415620001d957620001d8620001df565b5b50919050565b7f4e487b7100000000000000000000000000000000000000000000000000000000600052602260045260246000fd5b6127f7806200021e6000396000f3fe608060405234801561001057600080fd5b50600436106101005760003560e01c806370a0823111610097578063b88d4fde11610066578063b88d4fde146102ab578063c87b56dd146102c7578063e985e9c5146102f7578063f851a4401461032757610100565b806370a082311461022357806375794a3c1461025357806395d89b4114610271578063a22cb4651461028f57610100565b806323b872dd116100d357806323b872dd1461019f57806342842e0e146101bb5780636352211e146101d75780636a6278421461020757610100565b806301ffc9a71461010557806306fdde0314610135578063081812fc14610153578063095ea7b314610183575b600080fd5b61011f600480360381019061011a9190611a3b565b610345565b60405161012c9190612173565b60405180910390f35b61013d610427565b60405161014a919061218e565b60405180910390f35b61016d60048036038101906101689190611a8d565b6104b9565b60405161017a919061210c565b60405180910390f35b61019d600480360381019061019891906119ff565b61053e565b005b6101b960048036038101906101b491906118f9565b610656565b005b6101d560048036038101906101d091906118f9565b6106b6565b005b6101f160048036038101906101ec9190611a8d565b6106d6565b6040516101fe919061210c565b60405180910390f35b610221600480360381019061021c9190611894565b610788565b005b61023d60048036038101906102389190611894565b61083f565b60405161024a9190612390565b60405180910390f35b61025b6108f7565b6040516102689190612390565b60405180910390f35b6102796108fd565b604051610286919061218e565b60405180910390f35b6102a960048036038101906102a491906119c3565b61098f565b005b6102c560048036038101906102c09190611948565b610b10565b005b6102e160048036038101906102dc9190611a8d565b610b72565b6040516102ee919061218e565b60405180910390f35b610311600480360381019061030c91906118bd565b610c19565b60405161031e9190612173565b60405180910390f35b61032f610cad565b60405161033c919061210c565b60405180910390f35b60007f80ac58cd000000000000000000000000000000000000000000000000000000007bffffffffffffffffffffffffffffffffffffffffffffffffffffffff1916827bffffffffffffffffffffffffffffffffffffffffffffffffffffffff1916148061041057507f5b5e139f000000000000000000000000000000000000000000000000000000007bffffffffffffffffffffffffffffffffffffffffffffffffffffffff1916827bffffffffffffffffffffffffffffffffffffffffffffffffffffffff1916145b80610420575061041f82610cd3565b5b9050919050565b606060008054610436906125c0565b80601f0160208091040260200160405190810160405280929190818152602001828054610462906125c0565b80156104af5780601f10610484576101008083540402835291602001916104af565b820191906000526020600020905b81548152906001019060200180831161049257829003601f168201915b5050505050905090565b60006104c482610d3d565b610503576040517f08c379a00000000000000000000000000000000000000000000000000000000081526004016104fa906122f0565b60405180910390fd5b6004600083815260200190815260200160002060009054906101000a900473ffffffffffffffffffffffffffffffffffffffff169050919050565b6000610549826106d6565b90508073ffffffffffffffffffffffffffffffffffffffff168373ffffffffffffffffffffffffffffffffffffffff1614156105ba576040517f08c379a00000000000000000000000000000000000000000000000000000000081526004016105b190612350565b60405180910390fd5b8073ffffffffffffffffffffffffffffffffffffffff166105d9610da9565b73ffffffffffffffffffffffffffffffffffffffff161480610608575061060781610602610da9565b610c19565b5b610647576040517f08c379a000000000000000000000000000000000000000000000000000000000815260040161063e90612270565b60405180910390fd5b6106518383610db1565b505050565b610667610661610da9565b82610e6a565b6106a6576040517f08c379a000000000000000000000000000000000000000000000000000000000815260040161069d90612370565b60405180910390fd5b6106b1838383610f48565b505050565b6106d183838360405180602001604052806000815250610b10565b505050565b6000806002600084815260200190815260200160002060009054906101000a900473ffffffffffffffffffffffffffffffffffffffff169050600073ffffffffffffffffffffffffffffffffffffffff168173ffffffffffffffffffffffffffffffffffffffff16141561077f576040517f08c379a0000000000000000000000000000000000000000000000000000000008152600401610776906122b0565b60405180910390fd5b80915050919050565b600760009054906101000a900473ffffffffffffffffffffffffffffffffffffffff1673ffffffffffffffffffffffffffffffffffffffff163373ffffffffffffffffffffffffffffffffffffffff1614610818576040517f08c379a000000000000000000000000000000000000000000000000000000000815260040161080f90612230565b60405180910390fd5b610824816006546111a4565b60066000815480929190610837906125f2565b919050555050565b60008073ffffffffffffffffffffffffffffffffffffffff168273ffffffffffffffffffffffffffffffffffffffff1614156108b0576040517f08c379a00000000000000000000000000000000000000000000000000000000081526004016108a790612290565b60405180910390fd5b600360008373ffffffffffffffffffffffffffffffffffffffff1673ffffffffffffffffffffffffffffffffffffffff168152602001908152602001600020549050919050565b60065481565b60606001805461090c906125c0565b80601f0160208091040260200160405190810160405280929190818152602001828054610938906125c0565b80156109855780601f1061095a57610100808354040283529160200191610985565b820191906000526020600020905b81548152906001019060200180831161096857829003601f168201915b5050505050905090565b610997610da9565b73ffffffffffffffffffffffffffffffffffffffff168273ffffffffffffffffffffffffffffffffffffffff161415610a05576040517f08c379a00000000000000000000000000000000000000000000000000000000081526004016109fc90612210565b60405180910390fd5b8060056000610a12610da9565b73ffffffffffffffffffffffffffffffffffffffff1673ffffffffffffffffffffffffffffffffffffffff16815260200190815260200160002060008473ffffffffffffffffffffffffffffffffffffffff1673ffffffffffffffffffffffffffffffffffffffff16815260200190815260200160002060006101000a81548160ff0219169083151502179055508173ffffffffffffffffffffffffffffffffffffffff16610abf610da9565b73ffffffffffffffffffffffffffffffffffffffff167f17307eab39ab6107e8899845ad3d59bd9653f200f220920489ca2b5937696c3183604051610b049190612173565b60405180910390a35050565b610b21610b1b610da9565b83610e6a565b610b60576040517f08c379a0000000000000000000000000000000000000000000000000000000008152600401610b5790612370565b60405180910390fd5b610b6c848484846111c2565b50505050565b6060610b7d82610d3d565b610bbc576040517f08c379a0000000000000000000000000000000000000000000000000000000008152600401610bb390612330565b60405180910390fd5b6000610bc661121e565b90506000815111610be65760405180602001604052806000815250610c11565b80610bf08461123e565b604051602001610c019291906120e8565b6040516020818303038152906040525b915050919050565b6000600560008473ffffffffffffffffffffffffffffffffffffffff1673ffffffffffffffffffffffffffffffffffffffff16815260200190815260200160002060008373ffffffffffffffffffffffffffffffffffffffff1673ffffffffffffffffffffffffffffffffffffffff16815260200190815260200160002060009054906101000a900460ff16905092915050565b600760009054906101000a900473ffffffffffffffffffffffffffffffffffffffff1681565b60007f01ffc9a7000000000000000000000000000000000000000000000000000000007bffffffffffffffffffffffffffffffffffffffffffffffffffffffff1916827bffffffffffffffffffffffffffffffffffffffffffffffffffffffff1916149050919050565b60008073ffffffffffffffffffffffffffffffffffffffff166002600084815260200190815260200160002060009054906101000a900473ffffffffffffffffffffffffffffffffffffffff1673ffffffffffffffffffffffffffffffffffffffff1614159050919050565b600033905090565b816004600083815260200190815260200160002060006101000a81548173ffffffffffffffffffffffffffffffffffffffff021916908373ffffffffffffffffffffffffffffffffffffffff160217905550808273ffffffffffffffffffffffffffffffffffffffff16610e24836106d6565b73ffffffffffffffffffffffffffffffffffffffff167f8c5be1e5ebec7d5bd14f71427d1e84f3dd0314c0f7b2291e5b200ac8c7c3b92560405160405180910390a45050565b6000610e7582610d3d565b610eb4576040517f08c379a0000000000000000000000000000000000000000000000000000000008152600401610eab90612250565b60405180910390fd5b6000610ebf836106d6565b90508073ffffffffffffffffffffffffffffffffffffffff168473ffffffffffffffffffffffffffffffffffffffff161480610f2e57508373ffffffffffffffffffffffffffffffffffffffff16610f16846104b9565b73ffffffffffffffffffffffffffffffffffffffff16145b80610f3f5750610f3e8185610c19565b5b91505092915050565b8273ffffffffffffffffffffffffffffffffffffffff16610f68826106d6565b73ffffffffffffffffffffffffffffffffffffffff1614610fbe576040517f08c379a0000000000000000000000000000000000000000000000000000000008152600401610fb590612310565b60405180910390fd5b600073ffffffffffffffffffffffffffffffffffffffff168273ffffffffffffffffffffffffffffffffffffffff16141561102e576040517f08c379a0000000000000000000000000000000000000000000000000000000008152600401611025906121f0565b60405180910390fd5b6110398383836113eb565b611044600082610db1565b6001600360008573ffffffffffffffffffffffffffffffffffffffff1673ffffffffffffffffffffffffffffffffffffffff168152602001908152602001600020600082825461109491906124d6565b925050819055506001600360008473ffffffffffffffffffffffffffffffffffffffff1673ffffffffffffffffffffffffffffffffffffffff16815260200190815260200160002060008282546110eb919061244f565b92505081905550816002600083815260200190815260200160002060006101000a81548173ffffffffffffffffffffffffffffffffffffffff021916908373ffffffffffffffffffffffffffffffffffffffff160217905550808273ffffffffffffffffffffffffffffffffffffffff168473ffffffffffffffffffffffffffffffffffffffff167fddf252ad1be2c89b69c2b068fc378daa952ba7f163c4a11628f55a4df523b3ef60405160405180910390a4505050565b6111be8282604051806020016040528060008152506113f0565b5050565b6111cd848484610f48565b6111d98484848461144b565b611218576040517f08c379a000000000000000000000000000000000000000000000000000000000815260040161120f906121b0565b60405180910390fd5b50505050565b60606040518060600160405280602c8152602001612796602c9139905090565b60606000821415611286576040518060400160405280600181526020017f300000000000000000000000000000000000000000000000000000000000000081525090506113e6565b600082905060005b600082146112b85780806112a1906125f2565b915050600a826112b191906124a5565b915061128e565b60008167ffffffffffffffff8111156112fa577f4e487b7100000000000000000000000000000000000000000000000000000000600052604160045260246000fd5b6040519080825280601f01601f19166020018201604052801561132c5781602001600182028036833780820191505090505b5090505b600085146113df5760018261134591906124d6565b9150600a85611354919061263b565b6030611360919061244f565b60f81b81838151811061139c577f4e487b7100000000000000000000000000000000000000000000000000000000600052603260045260246000fd5b60200101907effffffffffffffffffffffffffffffffffffffffffffffffffffffffffffff1916908160001a905350600a856113d891906124a5565b9450611330565b8093505050505b919050565b505050565b6113fa83836115e2565b611407600084848461144b565b611446576040517f08c379a000000000000000000000000000000000000000000000000000000000815260040161143d906121b0565b60405180910390fd5b505050565b600061146c8473ffffffffffffffffffffffffffffffffffffffff166117b0565b156115d5578373ffffffffffffffffffffffffffffffffffffffff1663150b7a02611495610da9565b8786866040518563ffffffff1660e01b81526004016114b79493929190612127565b602060405180830381600087803b1580156114d157600080fd5b505af192505050801561150257506040513d601f19601f820116820180604052508101906114ff9190611a64565b60015b611585573d8060008114611532576040519150601f19603f3d011682016040523d82523d6000602084013e611537565b606091505b5060008151141561157d576040517f08c379a0000000000000000000000000000000000000000000000000000000008152600401611574906121b0565b60405180910390fd5b805181602001fd5b63150b7a0260e01b7bffffffffffffffffffffffffffffffffffffffffffffffffffffffff1916817bffffffffffffffffffffffffffffffffffffffffffffffffffffffff1916149150506115da565b600190505b949350505050565b600073ffffffffffffffffffffffffffffffffffffffff168273ffffffffffffffffffffffffffffffffffffffff161415611652576040517f08c379a0000000000000000000000000000000000000000000000000000000008152600401611649906122d0565b60405180910390fd5b61165b81610d3d565b1561169b576040517f08c379a0000000000000000000000000000000000000000000000000000000008152600401611692906121d0565b60405180910390fd5b6116a7600083836113eb565b6001600360008473ffffffffffffffffffffffffffffffffffffffff1673ffffffffffffffffffffffffffffffffffffffff16815260200190815260200160002060008282546116f7919061244f565b92505081905550816002600083815260200190815260200160002060006101000a81548173ffffffffffffffffffffffffffffffffffffffff021916908373ffffffffffffffffffffffffffffffffffffffff160217905550808273ffffffffffffffffffffffffffffffffffffffff16600073ffffffffffffffffffffffffffffffffffffffff167fddf252ad1be2c89b69c2b068fc378daa952ba7f163c4a11628f55a4df523b3ef60405160405180910390a45050565b600080823b905060008111915050919050565b60006117d66117d1846123dc565b6123ab565b9050828152602081018484840111156117ee57600080fd5b6117f984828561257e565b509392505050565b60008135905061181081612739565b92915050565b60008135905061182581612750565b92915050565b60008135905061183a81612767565b92915050565b60008151905061184f81612767565b92915050565b600082601f83011261186657600080fd5b81356118768482602086016117c3565b91505092915050565b60008135905061188e8161277e565b92915050565b6000602082840312156118a657600080fd5b60006118b484828501611801565b91505092915050565b600080604083850312156118d057600080fd5b60006118de85828601611801565b92505060206118ef85828601611801565b9150509250929050565b60008060006060848603121561190e57600080fd5b600061191c86828701611801565b935050602061192d86828701611801565b925050604061193e8682870161187f565b9150509250925092565b6000806000806080858703121561195e57600080fd5b600061196c87828801611801565b945050602061197d87828801611801565b935050604061198e8782880161187f565b925050606085013567ffffffffffffffff8111156119ab57600080fd5b6119b787828801611855565b91505092959194509250565b600080604083850312156119d657600080fd5b60006119e485828601611801565b92505060206119f585828601611816565b9150509250929050565b60008060408385031215611a1257600080fd5b6000611a2085828601611801565b9250506020611a318582860161187f565b9150509250929050565b600060208284031215611a4d57600080fd5b6000611a5b8482850161182b565b91505092915050565b600060208284031215611a7657600080fd5b6000611a8484828501611840565b91505092915050565b600060208284031215611a9f57600080fd5b6000611aad8482850161187f565b91505092915050565b611abf8161250a565b82525050565b611ace8161251c565b82525050565b6000611adf8261240c565b611ae98185612422565b9350611af981856020860161258d565b611b0281612728565b840191505092915050565b6000611b1882612417565b611b228185612433565b9350611b3281856020860161258d565b611b3b81612728565b840191505092915050565b6000611b5182612417565b611b5b8185612444565b9350611b6b81856020860161258d565b80840191505092915050565b6000611b84603283612433565b91507f4552433732313a207472616e7366657220746f206e6f6e20455243373231526560008301527f63656976657220696d706c656d656e74657200000000000000000000000000006020830152604082019050919050565b6000611bea601c83612433565b91507f4552433732313a20746f6b656e20616c7265616479206d696e746564000000006000830152602082019050919050565b6000611c2a602483612433565b91507f4552433732313a207472616e7366657220746f20746865207a65726f2061646460008301527f72657373000000000000000000000000000000000000000000000000000000006020830152604082019050919050565b6000611c90601983612433565b91507f4552433732313a20617070726f766520746f2063616c6c6572000000000000006000830152602082019050919050565b6000611cd0600a83612433565b91507f6f6e6c792061646d696e000000000000000000000000000000000000000000006000830152602082019050919050565b6000611d10602c83612433565b91507f4552433732313a206f70657261746f7220717565727920666f72206e6f6e657860008301527f697374656e7420746f6b656e00000000000000000000000000000000000000006020830152604082019050919050565b6000611d76603883612433565b91507f4552433732313a20617070726f76652063616c6c6572206973206e6f74206f7760008301527f6e6572206e6f7220617070726f76656420666f7220616c6c00000000000000006020830152604082019050919050565b6000611ddc602a83612433565b91507f4552433732313a2062616c616e636520717565727920666f7220746865207a6560008301527f726f2061646472657373000000000000000000000000000000000000000000006020830152604082019050919050565b6000611e42602983612433565b91507f4552433732313a206f776e657220717565727920666f72206e6f6e657869737460008301527f656e7420746f6b656e00000000000000000000000000000000000000000000006020830152604082019050919050565b6000611ea8602083612433565b91507f4552433732313a206d696e7420746f20746865207a65726f20616464726573736000830152602082019050919050565b6000611ee8602c83612433565b91507f4552433732313a20617070726f76656420717565727920666f72206e6f6e657860008301527f697374656e7420746f6b656e00000000000000000000000000000000000000006020830152604082019050919050565b6000611f4e602983612433565b91507f4552433732313a207472616e73666572206f6620746f6b656e2074686174206960008301527f73206e6f74206f776e00000000000000000000000000000000000000000000006020830152604082019050919050565b6000611fb4602f83612433565b91507f4552433732314d657461646174613a2055524920717565727920666f72206e6f60008301527f6e6578697374656e7420746f6b656e00000000000000000000000000000000006020830152604082019050919050565b600061201a602183612433565b91507f4552433732313a20617070726f76616c20746f2063757272656e74206f776e6560008301527f72000000000000000000000000000000000000000000000000000000000000006020830152604082019050919050565b6000612080603183612433565b91507f4552433732313a207472616e736665722063616c6c6572206973206e6f74206f60008301527f776e6572206e6f7220617070726f7665640000000000000000000000000000006020830152604082019050919050565b6120e281612574565b82525050565b60006120f48285611b46565b91506121008284611b46565b91508190509392505050565b60006020820190506121216000830184611ab6565b92915050565b600060808201905061213c6000830187611ab6565b6121496020830186611ab6565b61215660408301856120d9565b81810360608301526121688184611ad4565b905095945050505050565b60006020820190506121886000830184611ac5565b92915050565b600060208201905081810360008301526121a88184611b0d565b905092915050565b600060208201905081810360008301526121c981611b77565b9050919050565b600060208201905081810360008301526121e981611bdd565b9050919050565b6000602082019050818103600083015261220981611c1d565b9050919050565b6000602082019050818103600083015261222981611c83565b9050919050565b6000602082019050818103600083015261224981611cc3565b9050919050565b6000602082019050818103600083015261226981611d03565b9050919050565b6000602082019050818103600083015261228981611d69565b9050919050565b600060208201905081810360008301526122a981611dcf565b9050919050565b600060208201905081810360008301526122c981611e35565b9050919050565b600060208201905081810360008301526122e981611e9b565b9050919050565b6000602082019050818103600083015261230981611edb565b9050919050565b6000602082019050818103600083015261232981611f41565b9050919050565b6000602082019050818103600083015261234981611fa7565b9050919050565b600060208201905081810360008301526123698161200d565b9050919050565b6000602082019050818103600083015261238981612073565b9050919050565b60006020820190506123a560008301846120d9565b92915050565b6000604051905081810181811067ffffffffffffffff821117156123d2576123d16126f9565b5b8060405250919050565b600067ffffffffffffffff8211156123f7576123f66126f9565b5b601f19601f8301169050602081019050919050565b600081519050919050565b600081519050919050565b600082825260208201905092915050565b600082825260208201905092915050565b600081905092915050565b600061245a82612574565b915061246583612574565b9250827fffffffffffffffffffffffffffffffffffffffffffffffffffffffffffffffff0382111561249a5761249961266c565b5b828201905092915050565b60006124b082612574565b91506124bb83612574565b9250826124cb576124ca61269b565b5b828204905092915050565b60006124e182612574565b91506124ec83612574565b9250828210156124ff576124fe61266c565b5b828203905092915050565b600061251582612554565b9050919050565b60008115159050919050565b60007fffffffff0000000000000000000000000000000000000000000000000000000082169050919050565b600073ffffffffffffffffffffffffffffffffffffffff82169050919050565b6000819050919050565b82818337600083830152505050565b60005b838110156125ab578082015181840152602081019050612590565b838111156125ba576000848401525b50505050565b600060028204905060018216806125d857607f821691505b602082108114156125ec576125eb6126ca565b5b50919050565b60006125fd82612574565b91507fffffffffffffffffffffffffffffffffffffffffffffffffffffffffffffffff8214156126305761262f61266c565b5b600182019050919050565b600061264682612574565b915061265183612574565b9250826126615761266061269b565b5b828206905092915050565b7f4e487b7100000000000000000000000000000000000000000000000000000000600052601160045260246000fd5b7f4e487b7100000000000000000000000000000000000000000000000000000000600052601260045260246000fd5b7f4e487b7100000000000000000000000000000000000000000000000000000000600052602260045260246000fd5b7f4e487b7100000000000000000000000000000000000000000000000000000000600052604160045260246000fd5b6000601f19601f8301169050919050565b6127428161250a565b811461274d57600080fd5b50565b6127598161251c565b811461276457600080fd5b50565b61277081612528565b811461277b57600080fd5b50565b61278781612574565b811461279257600080fd5b5056fe68747470733a2f2f68696464656e2d686561646c616e642d38303236342e6865726f6b756170702e636f6d2fa26469706673582212208593d632564814c8b0daa9fb21946011deaa31284f6f0b0bd6fa6c614e71af8a64736f6c63430008000033",
  "immutableReferences": {},
  "source": "pragma solidity ^0.8.0;\n\nimport '@openzeppelin/contracts/token/ERC721/ERC721.sol';\n\ncontract NFT is ERC721 {\n    uint public nextTokenId;\n    address public admin;\n\n    constructor() ERC721('My NFT', 'NFT') {\n        admin = msg.sender;\n    }\n\n    function mint(address to) external {\n        require(msg.sender == admin, 'only admin');\n        _safeMint(to, nextTokenId);\n        nextTokenId++;\n    }\n\n    function _baseURI() internal view override returns (string memory) {\n        return 'https://hidden-headland-80264.herokuapp.com/';\n    }\n}",
  "sourcePath": "/Users/00shoe/Projects/ETB/nft-app/contracts/NFT.sol",
  "compiler": {
    "name": "solc",
    "version": "0.8.0+commit.c7dfd78e.Emscripten.clang"
  },
  "schemaVersion": "3.2.4",
  "updatedAt": "2021-10-26T00:00:00.628Z",
  "networkType": "ethereum",
  "devdoc": {
    "kind": "dev",
    "methods": {
      "approve(address,uint256)": {
        "details": "See {IERC721-approve}."
      },
      "balanceOf(address)": {
        "details": "See {IERC721-balanceOf}."
      },
      "getApproved(uint256)": {
        "details": "See {IERC721-getApproved}."
      },
      "isApprovedForAll(address,address)": {
        "details": "See {IERC721-isApprovedForAll}."
      },
      "name()": {
        "details": "See {IERC721Metadata-name}."
      },
      "ownerOf(uint256)": {
        "details": "See {IERC721-ownerOf}."
      },
      "safeTransferFrom(address,address,uint256)": {
        "details": "See {IERC721-safeTransferFrom}."
      },
      "safeTransferFrom(address,address,uint256,bytes)": {
        "details": "See {IERC721-safeTransferFrom}."
      },
      "setApprovalForAll(address,bool)": {
        "details": "See {IERC721-setApprovalForAll}."
      },
      "supportsInterface(bytes4)": {
        "details": "See {IERC165-supportsInterface}."
      },
      "symbol()": {
        "details": "See {IERC721Metadata-symbol}."
      },
      "tokenURI(uint256)": {
        "details": "See {IERC721Metadata-tokenURI}."
      },
      "transferFrom(address,address,uint256)": {
        "details": "See {IERC721-transferFrom}."
      }
    },
    "version": 1
  },
  "userdoc": {
    "kind": "user",
    "methods": {},
    "version": 1
  }
}